:060000000A128A11E32937
:10000800F000030EF1000B1810200B192220710EBE
:100018008300F00E700E090003138312061C1820CB
:10002800861C1D200B100800A30A23080021A40029
:100038000800A30323080021A40008008022061E4C
:100048003420861E2A20061F2F200800A20A220814
:10005800612188000800A00A2008152188000800EE
:0A006800A10A21085A2188000800AF
:100200008A010A140F3982070734153422342F3437
:100210003B34463451345B3464346D3476347E344C
:1002200085348C349334993408008A010A143F3998
:10023000820780348C349834A534B034BC34C6344E
:10024000D034DA34E234EA34F034F534FA34FD34BC
:10025000FE34FF34FE34FD34FA34F534F034EA343D
:10026000E234DA34D034C634BC34B034A5349834F3
:100270008C348034733467345A344F3443343934D3
:100280002F3425341D3415340F340A340534023428
:10029000013400340134023405340A340F34153487
:1002A0001D3425342F34393443344F345A346734B1
:1002B000733408008A010A1401398207FF340034BC
:1002C00008008A010A141F398207103420343034A0
:1002D000403450346034703480348F349F34AF34C1
:1002E000BF34CF34DF34EF34FF34EF34DF34CF3476
:1002F000BF34AF349F348F34803470346034503422
:100300004034303420341034003408008A010A1498
:1003100003398207013402340434083408008A01A6
:100320000A140F3982079834F834F834923482343E
:1003300080348034F93492348034B034C034A434FE
:10034000F834F834A43408008A010A140F398207FB
:1003500080349934C034F8349934F9349834803482
:10036000823492348234F834F8348034F934993455
:1003700008008A010A140F3982079834C034F9340E
:10038000F934A434B034B034993492348234F8342B
:1003900080349834C034A434B03408008A010A147C
:1003A0000F398207C034F934F934F934F934F934A7
:1003B000F934F934F934F934F934F934F934A4342A
:1003C000A434A43408000317831688018901031399
:1003D000831685010313831689010313831687018E
:1003E000FF3086008113FF30950088016E22652260
:1003F00084227522031383128501860187018801F7
:1004000089010030A300A60F092AA50A2508862124
:100410008500061E1022861E6122061F4B22032A1B
:10042000861F2022861B1522080009148910051832
:100430003B2285183F2205194322851947220800CF
:1004400089140910091005182C2285183022051965
:1004500034228519382208002308B92187000800B2
:100460002308CE2187000800C030870087000800DD
:10047000C0308700080023088F2187000800230868
:10048000A421870008002308B92187000800230859
:10049000CE218700080089010518552285185822A9
:1004A00005195B2285195E22080086308700080046
:1004B000C83087000800F9308700080092308700B4
:1004C00008008901B6308700080003138316FF3047
:1004D00096000313831206080B10080003138316FB
:1004E0008F110F168F160F17080003138316811232
:1004F00001128111011181100114031383120800EC
:10050000240881000B1108008B178B150B108B161C
:080510000B110C140B11080083
:04400E00D420FF3F7C
:00000001FF
